:100000000C944A000C9469000C94AC000C946700AA
:100010000C9467000C9467000C9467000C946700C4
:100020000C9467000C94D9000C9467000C94670042
:100030000C9467000C9467000C9467000C946700A4
:100040000C9467000C9467000C9467000C94670094
:100050000C946700001F000000001F00001F10101C
:1000600010101F00001F181818181F00001F1C1C5C
:100070001C1C1F00001F1E1E1E1E1F00001F1F1F16
:100080001F1F1F0003070F1F0F070300181C1E1F51
:100090001E1C180011241FBECFE5D4E0DEBFCDBF6B
:1000A00010E0A0E6B0E0E4E6FFE002C005900D92AB
:1000B000A03BB107D9F710E0A0EBB0E001C01D9262
:1000C000A53BB107E1F70E9490000C94B0070C9497
:1000D00000001F920F920FB60F9211248F93809100
:1000E000B4008823B9F0813031F48091B1008F5F82
:1000F0008093B1000FC0823031F48091B2008F5FE5
:100100008093B20007C0833029F48091B3008F5FE1
:100110008093B3008F910F900FBE0F901F90189592
:100120008CE082BB82E090E00E94020282E090E0DC
:100130000E94390280E090E00E94A7040E942B04F4
:1001400085E090E00E9483040E948E040E943403A4
:100150000E94CD027894FFCF1F920F920FB60F929C
:1001600011242F933F934F935F936F937F938F93BC
:100170009F93AF93BF93EF93FF938091B4008F5FF2
:100180008093B400843010F01092B4000E94CD022D
:10019000FF91EF91BF91AF919F918F917F916F915F
:1001A0005F914F913F912F910F900FBE0F901F9035
:1001B00018951F920F920FB60F9211240F931F9351
:1001C0002F933F934F935F936F937F938F939F935F
:1001D000AF93BF93EF93FF938AE090E00E94A70450
:1001E0008091B400882309F061C08091B0008F5FD6
:1001F0008093B0008B3008F459C01092B000809109
:10020000B1008F5F8093B1008C33A0F01092B100E9
:100210008091B2008F5F8093B2008C3358F01092BF
:10022000B2008091B3008F5F8093B300883110F0EB
:100230001092B3008DB79EB70A970FB6F8949EBF81
:100240000FBE8DBFEDB7FEB731960CE910E0ADB72C
:10025000BEB712961C930E93119780E690E093839D
:1002600082838091B300848315828091B20086835B
:1002700017828091B100808711860E94D8048DB7C3
:100280009EB70A960FB6F8949EBF0FBE8DBF80E052
:1002900060E00E94EA02F80101900020E9F731973E
:1002A000E01BF10BC8016E2F0E94D5028091B400B3
:1002B000813079F500D000D000D0EDB7FEB731968F
:1002C0000CE910E0ADB7BEB712961C930E931197D0
:1002D00081E790E0938382838091B10084831582CB
:1002E0000E94D8048DB79EB706960FB6F8949EBFAD
:1002F0000FBE8DBF80E060E00E94EA02F80101902D
:100300000020E9F73197E01BF10BC8016E2F0E9426
:10031000D5028091B400823079F500D000D000D0B1
:10032000EDB7FEB731960CE910E0ADB7BEB7129647
:100330001C930E93119780E890E0938382838091C1
:10034000B200848315820E94D8048DB79EB70696AA
:100350000FB6F8949EBF0FBE8DBF80E060E00E9494
:10036000EA02F80101900020E9F73197E01BF10B58
:10037000C8016E2F0E94D5028091B400833079F5B8
:1003800000D000D000D0EDB7FEB731960CE910E0F8
:10039000ADB7BEB712961C930E9311978FE890E0FD
:1003A000938382838091B300848315820E94D80452
:1003B0008DB79EB706960FB6F8949EBF0FBE8DBF41
:1003C00080E060E00E94EA02F80101900020E9F775
:1003D0003197E01BF10BC8016E2F0E94D502FF91EF
:1003E000EF91BF91AF919F918F917F916F915F91AD
:1003F0004F913F912F911F910F910F900FBE0F9032
:100400001F9018959C018A98929A8BB780648BBF35
:100410008AB780648ABF2130310581F022303105EE
:100420001CF4232B41F008952230310569F023306C
:100430003105B9F410C085B78E7F02C085B78160E1
:1004400085BF85B78D7F05C085B78E7F85BF85B792
:10045000826085BF089585B7816085BF85B782605A
:1004600085BF08958BB78F7B8BBF8AB78F7B8ABF81
:1004700008959C018B98939A8BB780688BBF8AB73D
:1004800080688ABF2130310581F0223031051CF4AB
:10049000232B41F008952230310569F023303105D6
:1004A000B9F410C085B78B7F02C085B7846085BF63
:1004B00085B7877F05C085B78B7F85BF85B7886087
:1004C00085BF089585B7846085BF85B7886085BF7F
:1004D00008958BB78F778BBF8AB78F778ABF0895C0
:1004E0009C01BA98C29A8BB780628BBF8AB7806230
:1004F0008ABF2115310521F02130310541F404C0B6
:1005000084B78F7B84BF089584B7806484BF0895C7
:100510008BB78F7D8BBF8AB78F7D8ABF0895282FB9
:10052000207F25BBA89AAA9A28EE33E0F9013197DB
:10053000F1F7AA98A898F9013197F1F790E044E013
:10054000880F991F4A95E1F785BBA89AAA9AC90115
:100550000197F1F7AA98A898C9010197F1F70895B2
:10056000282F207F25BBAA9A28EE33E0F901319786
:10057000F1F7AA98F9013197F1F790E054E0880F6C
:10058000991F5A95E1F785BBAA9AC9010197F1F71E
:10059000AA98C9010197F1F7089581E00E94B0027D
:1005A000089582E00E94B00208950F931F93CF93A5
:1005B000DF93062F009749F0EC0110E004C0899109
:1005C0000E948F021F5F1017D0F3DF91CF911F9110
:1005D0000F910895623031F0633031F0613029F4C9
:1005E000805C03C08C5E01C08C5A80680E94B0029F
:1005F00008951F93CF93DF93EC01862F642F0E9401
:10060000EA0210E003C00E948F021F5FFE01E10FAB
:10061000F11D84918823B9F7DF91CF911F9108953F
:10062000EF92FF920F931F93CF93DF937C01162FCE
:10063000110F110F110F1064C0E0D0E0F701EC0FA3
:10064000FD1F0491812F8C0F0E94B002802F0E9409
:100650008F022196C830D10589F7DF91CF911F9184
:100660000F91FF90EF9008951F93CF93DF9388E948
:100670009AE30197F1F715BA15BA84B3806F84BB7A
:1006800084B3876084BB80E385BBAA9A28EE33E0FD
:10069000F9013197F1F7AA98F9013197F1F785BB84
:1006A000AA9AC9010197F1F7AA98C9010197F1F730
:1006B00080E285BBAA9AC9010197F1F7AA98C901FE
:1006C0000197F1F788E20E94B0028CE00E94B0022C
:1006D000C4E5D0E060E0162F1F5FCE010E9410033A
:1006E0002896612F1830B9F7DF91CF911F910895A7
:1006F0000F931F93CF93DF93C0E0D0E0082F10E05B
:1007000004C08EE10E94B0022196C017D107CCF33D
:10071000DF91CF911F910F9108950F931F93CF9366
:10072000DF93C0E0D0E0082F10E004C088E10E9411
:10073000B0022196C017D107CCF3DF91CF911F9162
:100740000F9108958EE00E94B00208958FE00E94FC
:10075000B00208958CE00E94B002089588E00E94E3
:10076000B00208958CE00E94B00208950F931F9389
:10077000CF93DF93C0E0D0E0082F10E004C080E109
:100780000E94B0022196C017D107CCF3DF91CF9120
:100790001F910F9108950F931F93CF93DF93C0E0A4
:1007A000D0E0082F10E004C084E10E94B00221963E
:1007B000C017D107CCF3DF91CF911F910F9108950E
:1007C000DF92EF92FF920F931F93CF93DF93D42E7C
:1007D00096E0899FC0011124242F30E0AC01429F94
:1007E000C001439F900D529F900D112470E00E9414
:1007F000C504EB01CB0166E070E00E94B104E82E75
:10080000FF2400E010E012C0C8010596C817D90700
:1008100010F085E006C0C017D10710F08E2D01C082
:1008200080E00E948F02F3940A5F1F4FFD1460F373
:10083000DF91CF911F910F91FF90EF90DF9008957E
:10084000DC010D900020E9F71197A81BB90B6A2F66
:100850000E94D502089583B78F7B83BF83B7877FBC
:1008600083BF08959C0183B78F7B83BF83B7886064
:1008700083BF2130310581F0223031051CF4232B58
:1008800041F008952230310569F023303105B9F483
:1008900010C083B78F7E02C083B7806183BF83B7E8
:1008A0008F7D05C083B78F7E83BF83B7806283BF90
:1008B000089583B7806183BF83B7806283BF089543
:1008C0009C0183B7806483BF83B7886083BF223075
:1008D000310559F02330310579F0232B99F483B792
:1008E0008F7E83BF83B78F7D05C083B78F7E83BF25
:1008F00083B7806283BF089583B7806183BF83B766
:10090000806283BF08959C018830910534F483B7D9
:10091000887F83BF83B7822B83BF089589B78160A7
:1009200089BF089589B7826089BF88B7826088BF10
:10093000089589B78E7F89BF88B78E7F88BF089555
:1009400089B78D7F89BF88B78D7F88BF089582BFA3
:1009500008958CBF089583B7887F83BF83B783BF13
:100960000895AA1BBB1B51E107C0AA1FBB1FA617F6
:10097000B70710F0A61BB70B881F991F5A95A9F748
:1009800080959095BC01CD01089597FB092E07260F
:100990000AD077FD04D0E5DF06D000201AF4709568
:1009A00061957F4F0895F6F7909581959F4F089533
:1009B000AEE0B0E0EEEDF4E00C9487070D891E89FF
:1009C00086E08C831A8309838FEF9FE79E838D8354
:1009D0009E01275E3F4FCE0101966F89788DA90158
:1009E0000E94FC042F813885020F131FF80110822A
:1009F0002E96E4E00C94A307ABE0B0E0E2E0F5E073
:100A00000C9479073C012B015A01FC0117821682D4
:100A1000838181FD03C06FEF7FEFC6C19AE0892E0D
:100A20001E010894211C311CF3012381F20123FDD6
:100A3000859123FF81912F01882309F4B2C185326A
:100A400039F423FD859123FF81912F01853229F40B
:100A500090E0B3010E94EF06E7CF982FFF24EE2429
:100A60009924FFE1FF15D0F09B3269F09C3228F405
:100A7000903259F0933291F40EC09D3249F0903388
:100A800069F441E024C052E0F52A84E0F82A28C045
:100A900098E0F92A25C0E0E1FE2A22C0F7FC29C02F
:100AA000892F80538A3070F4F6FE05C0989C902CF4
:100AB0001124980E15C0E89CE02C1124E80EF0E2F9
:100AC000FF2A0EC09E3229F4F6FC6BC140E4F42AE2
:100AD00007C09C3619F450E8F52A02C0983649F44C
:100AE000F20123FD959123FF91912F01992309F0A4
:100AF000B8CF892F8554833018F08052833038F472
:100B000044E050E0A40EB51E5FE359830FC0933656
:100B100031F0933779F0933509F056C020C0F501D4
:100B20008081898342E050E0A40EB51E610101E09E
:100B300010E012C0F501C080D180F6FC03C06FEF59
:100B40007FEF02C0692D70E042E050E0A40EB51EB8
:100B5000C6010E94E4068C015FE7F52214C0F5018E
:100B6000C080D180F6FC03C06FEF7FEF02C0692D1B
:100B700070E042E050E0A40EB51EC6010E94D90606
:100B80008C0150E8F52AF3FE07C01AC080E290E01D
:100B9000B3010E94EF06EA948E2D90E00817190722
:100BA000A8F30EC0F601F7FC8591F7FE81916F0165
:100BB00090E0B3010E94EF06E110EA94015010406A
:100BC0000115110579F7EAC0943611F0993669F5E7
:100BD000F7FE08C0F501208131814281538184E014
:100BE00090E00AC0F501808191819C01442737FD86
:100BF0004095542F82E090E0A80EB91E9FE6F9229E
:100C000057FF09C050954095309521953F4F4F4F64
:100C10005F4FE0E8FE2ACA01B901A1012AE030E0F5
:100C20000E941B07D82ED21840C0953729F41F2DDB
:100C30001F7E2AE030E01DC01F2D197F9F3661F016
:100C4000903720F4983509F0ACC00FC0903739F0D8
:100C5000983709F0A6C004C028E030E00AC010614F
:100C600014FD146020E130E004C014FD166020E1A2
:100C700032E017FF08C0F5016081718182819381A4
:100C800044E050E008C0F50180819181BC0180E022
:100C900090E042E050E0A40EB51EA1010E941B07A7
:100CA000D82ED2188FE7F82EF122F6FE0BC05EEF99
:100CB000F522D91438F4F4FE07C0F2FC05C08FEE1B
:100CC000F82202C01D2D01C0192DF4FE0DC0FE0139
:100CD000ED0DF11D8081803319F499EEF92208C0E1
:100CE0001F5FF2FE05C003C08F2D867809F01F5FDD
:100CF0000F2DF3FC14C0F0FE0FC01E1510F09D2C3C
:100D00000BC09D2C9E0C911A1E2D06C080E290E017
:100D1000B3010E94EF061F5F1E15C0F304C01E152D
:100D200010F4E11A01C0EE2404FF0FC080E390E04C
:100D3000B3010E94EF0602FF1DC001FD03C088E75A
:100D400090E00EC088E590E00BC0802F867891F08F
:100D500001FF02C08BE201C080E2F7FC8DE290E06F
:100D6000B3010E94EF0606C080E390E0B3010E9449
:100D7000EF069A94D914C0F3DA94F101ED0DF11D48
:100D8000808190E0B3010E94EF06DD20A9F706C044
:100D900080E290E0B3010E94EF06EA94EE20C1F7F2
:100DA00043CEF30166817781CB012B96E2E10C946F
:100DB0009507FC010590615070400110D8F78095AF
:100DC00090958E0F9F1F0895FC0161507040019017
:100DD0000110D8F7809590958E0F9F1F08950F935F
:100DE0001F93CF93DF938C01EB018B8181FF1BC09D
:100DF00082FF0DC02E813F818C819D81281739078C
:100E000064F4E881F9810193F983E88306C0E885F9
:100E1000F985802F0995892B31F48E819F81019668
:100E20009F838E8302C00FEF1FEFC801DF91CF9128
:100E30001F910F910895FA01AA27283051F120310E
:100E400081F1E8946F936E7F6E5F7F4F8F4F9F4F5E
:100E5000AF4FB1E03ED0B4E03CD0670F781F891FA0
:100E60009A1FA11D680F791F8A1F911DA11D6A0F6E
:100E7000711D811D911DA11D20D009F468943F9121
:100E80002AE0269F11243019305D3193DEF6CF0120
:100E90000895462F4770405D4193B3E00FD0C9F7E6
:100EA000F6CF462F4F70405D4A3318F0495D31FD53
:100EB0004052419302D0A9F7EACFB4E0A6959795A6
:100EC000879577956795BA95C9F70097610571057C
:100ED00008959B01AC010A2E0694579547953795C6
:100EE0002795BA95C9F7620F731F841F951FA01D20
:100EF00008952F923F924F925F926F927F928F92BE
:100F00009F92AF92BF92CF92DF92EF92FF920F9398
:100F10001F93CF93DF93CDB7DEB7CA1BDB0B0FB6A2
:100F2000F894DEBF0FBECDBF09942A88398848885F
:100F30005F846E847D848C849B84AA84B984C884F5
:100F4000DF80EE80FD800C811B81AA81B981CE0FEC
:100F5000D11D0FB6F894DEBF0FBECDBFED010895D1
:040F6000F894FFCF33
:100F6400203C3C3C25643A25643A25643E3E3E20C0
:100F740000536574207365636F6E643D25642000BF
:100F8400536574206D696E7574653D256420005346
:100F9400657420686F75723D256420002000000090
:100FA400000000000000000000000000000000003D
:00000001FF
