:1000000012C02CC02BC02AC029C028C027C026C0BF
:1000100025C024C023C022C021C020C01FC01EC0D4
:100020001DC01CC01BC011241FBECFE5D4E0DEBF25
:10003000CDBF13E0A0E6B0E0E8ECF3E002C005902D
:100040000D92AE3EB107D9F713E0AEEEB3E001C0BA
:100050001D92A53FB107E1F740D0B4C1D1CFCF93F6
:10006000DF938091F1039091F203A0EBB3E040E0C5
:1000700050E060E070E021C0EB01C757DD4F20E4A5
:100080003FEF8C9190E0FC01EE0FFF1FE80FF91F8E
:10009000EE0FFF1FE20FF31FE05AFF4F808189939D
:1000A0002F5F3F4F8FEF2634380759F74F5F5F4F71
:1000B000695F7F4F119686E090E048335105E0F28A
:1000C0009093F2038093F1035093F4034093F3036E
:1000D00080E090E0DF91CF9108958F929F92AF9250
:1000E000BF92CF92DF92EF92FF920F931F93CF9325
:1000F000DF939FEF97BB8FE384BB91BBB0DFE090B2
:10010000EF03F090F00300E010E041E0842E912C2A
:1001100094E6A92EB12C88EEC82E83E0D82ECF7598
:10012000D070F701E757FD4F808190E0002E02C0AC
:10013000959587950A94E2F762E070E01CD1B5E0EE
:10014000880F991FBA95E1F7C82BD92BCF76D070BD
:10015000818190E0002E02C0959587950A94E2F780
:1001600062E070E008D1A4E0880F991FAA95E1F73A
:10017000C82BD92BC777D070828190E0002E02C0A7
:10018000959587950A94E2F762E070E0F4D073E009
:10019000880F991F7A95E1F7C82BD92BCB77D070B0
:1001A000838190E0002E02C0959587950A94E2F72E
:1001B00062E070E0E0D0880F991F880F991FC82B6C
:1001C000D92BCD77D070848190E0002E02C0959518
:1001D00087950A94E2F762E070E0CDD0880F991F0E
:1001E000C82BD92BCE77D070858190E0002E02C02D
:1001F000959587950A94E2F762E070E0BCD0C82B31
:10020000D92B2F773070868190E0002E02C0959513
:1002100087950A94E2F762E070E0ADD09695982F4A
:10022000882797958795282B392B2F7B30708781CE
:1002300090E0002E02C0959587950A94E2F762E05F
:1002400070E099D0B6E0880F991FBA95E1F7282B96
:10025000392B2F7D3070808590E0002E02C095955F
:1002600087950A94E2F762E070E085D0A5E0880FF8
:10027000991FAA95E1F7282B392B2F7E30708185A5
:1002800090E0002E02C0959587950A94E2F762E00F
:1002900070E071D074E0880F991F7A95E1F7282BF0
:1002A000392B277F3070828590E0002E02C0959513
:1002B00087950A94E2F762E070E05DD063E0880F12
:1002C000991F6A95E1F7282B392B2B7F3070838596
:1002D00090E0002E02C0959587950A94E2F762E0BF
:1002E00070E049D0880F991F880F991F282B392B50
:1002F0002D7F3070848590E0002E02C09595879503
:100300000A94E2F762E070E036D0880F991F282B3C
:10031000392B2E7F3070858590E0002E02C0959598
:1003200087950A94E2F762E070E025D0282B392BFC
:10033000C401002E02C0880F991F0A94E2F780952D
:1003400082BB28BBC5BB80E197E2F5013197F1F78D
:100350000197D9F70F5F1F4F0830110514F000E027
:1003600010E08BEFE816F10410F0EE24FF24C60134
:100370000197F1F7D4CE97FB092E07260AD077FD17
:1003800004D00CD006D000201AF4709561957F4FF0
:100390000895F6F7909581959F4F0895AA1BBB1B72
:1003A00051E107C0AA1FBB1FA617B70710F0A61B75
:1003B000B70B881F991F5A95A9F780959095BC0196
:0803C000CD010895F894FFCF70
:1003C80000000000000000065F06000007030007A9
:1003D8000300FFFFFFFFFFFF242B6A1200006313D7
:1003E80008646300364956205000000703000000E7
:1003F800003E4100000000413E000000083E1C3E57
:10040800080008083E08080000E06000000008082E
:1004180008080800006060000000201008040200BE
:100428003E5149453E0000427F4000006251494923
:1004380046002249494936001814127F10002F49F6
:10044800494931003C4A4949300001710905030016
:10045800364949493600064949291E00006C6C0096
:10046800000000EC6C000000081422410000242465
:10047800242424000041221408000201590906001E
:100488003E415D551E007E0909097E007F494949A4
:1004980036003E41414122007F4141413E007F49B3
:1004A800494941007F09090901003E4149497A004B
:1004B8007F0808087F0000417F410000304040402D
:1004C8003F007F08142241007F40404040007F02E7
:1004D80004027F007F0204087F003E4141413E0044
:1004E8007F09090906003E4151215E007F0909196B
:1004F800660026494949320001017F0101003F4059
:1005080040403F001F2040201F003F403C403F002C
:10051800631408146300070870080700714945430D
:100528000000007F41410000020408102000004143
:10053800417F000004020102040080808080800066
:100548000003070000002054545478007F444444BA
:100558003800384444442800384444447F00385420
:1005680054541800087E0909000018A4A4A47C00AB
:100578007F040478000000007D0000004080847D36
:1005880000007F102844000000007F4000007C0429
:10059800180478007C040478000038444444380087
:1005A800FC444444380038444444FC00447844043F
:1005B8000800085454542000043E442400003C40E1
:1005C800207C00001C2040201C003C6030603C0067
:1005D8006C10106C00009CA0603C00006454544CEB
:1005E80000000201020100000300000000000000FA
:1005F80000000000000000000000000000000000F3
:1006080000000000000000000000000000000000E2
:1006180000000000000000000000000000000000D2
:1006280000000000000000000000000000000000C2
:1006380000000000000000000000000000000000B2
:1006480000000000000000000000000000000000A2
:100658000000000000000000000000000000000092
:100668000000000000000000000000000000000082
:100678000000000000000000000000000000000072
:100688000000000000000000000000000000000062
:100698000000000000000000000000000000000052
:1006A8000000000000000000000000000000000042
:1006B8000000000000000000000000000000000032
:1006C8000000000000000000000000000000000022
:1006D8000000000000000000000000000000000012
:1006E8000000000000000000000000000000000002
:1006F80000000000000000000000000000000000F2
:1007080000000000000000000000000000000000E1
:1007180042526943533A204255494C4420524F4271
:100728004F542043524541544520534349454E4375
:10073800452000000000000000000000000000004C
:0E0748000000000000000000000000000000A3
:00000001FF
