:1000000012C02CC02BC02AC029C028C027C026C0BF
:1000100025C024C023C022C021C020C01FC01EC0D4
:100020001DC01CC01BC011241FBECFE5D4E0DEBF25
:10003000CDBF13E0A0E6B0E0ECE5F1E002C0059032
:100040000D92A43DB107D9F713E0A4EDB3E001C0D0
:100050001D92AB3DB107E1F740D07EC0D1CFCF9329
:10006000DF938091D7039091D803A4ECB3E040E0F4
:1000700050E060E070E021C0EB01C757DD4F20E4A5
:100080003FEF8C9190E0FC01EE0FFF1FE80FF91F8E
:10009000EE0FFF1FE20FF31FE05AFF4F808189939D
:1000A0002F5F3F4F8FEF2634380759F74F5F5F4F71
:1000B000695F7F4F119686E090E04E325105E0F285
:1000C0009093D8038093D7035093DA034093D903D6
:1000D00080E090E0DF91CF9108959FEF97BB8FE391
:1000E00084BB91BB20E030E040E050E0A1E0B0E014
:1000F00068EE73E02630310554F418BACD01022EB3
:1001000002C0880F991F0A94E2F785BB0DC015BA8B
:1001100026503040CD01022E02C0880F991F0A944C
:10012000E2F72A5F3F4F88BBCB010197F1F72F5FC2
:100130003F4F2E30310514F020E030E0FA01E75750
:10014000FD4F8081809582BB4F5F5F4F45305105E9
:0C0150008CF240E050E0CECFF894FFCFDE
:10015C0000000000000000065F0600000703000717
:10016C000300247E247E2400242B6A1200006313D7
:10017C000864630036495620500000070300000055
:10018C00003E4100000000413E000000083E1C3EC5
:10019C00080008083E08080000E06000000008089D
:1001AC00080808000060600000002010080402002D
:1001BC003E5149453E0000427F4000006251494992
:1001CC0046002249494936001814127F10002F4965
:1001DC00494931003C4A4949300001710905030085
:1001EC00364949493600064949291E00006C6C0005
:1001FC00000000EC6C0000000814224100002424D4
:10020C00242424000041221408000201590906008C
:10021C003E415D551E007E0909097E007F49494912
:10022C0036003E41414122007F4141413E007F4921
:10023C00494941007F09090901003E4149497A00B9
:10024C007F0808087F0000417F410000304040409B
:10025C003F007F08142241007F40404040007F0255
:10026C0004027F007F0204087F003E4141413E00B2
:10027C007F09090906003E4151215E007F090919D9
:10028C00660026494949320001017F0101003F40C7
:10029C0040403F001F2040201F003F403C403F009B
:1002AC00631408146300070870080700714945437C
:1002BC000000007F414100000204081020000041B2
:1002CC00417F0000040201020400808080808000D5
:1002DC000003070000002054545478007F44444429
:1002EC003800384444442800384444447F0038548F
:1002FC0054541800087E0909000018A4A4A47C001A
:10030C007F040478000000007D0000004080847DA4
:10031C0000007F102844000000007F4000007C0497
:10032C00180478007C0404780000384444443800F5
:10033C00FC444444380038444444FC0044784404AD
:10034C000800085454542000043E442400003C404F
:10035C00207C00001C2040201C003C6030603C00D5
:10036C006C10106C00009CA0603C00006454544C59
:10037C000000083E4141000003FF11111111FF0064
:10038C000000000000000000000000000000000061
:10039C000000000000000000000000000000000051
:1003AC000000000000000000000000000000000041
:1003BC000000000000000000000000000000000031
:1003CC000000000000000000000000000000000021
:1003DC000000000000000000000000000000000011
:1003EC000000000000000000000000000000000001
:1003FC0000000000000000000000000000000000F1
:10040C0000000000000000000000000000000000E0
:10041C0000000000000000000000000000000000D0
:10042C0000000000000000000000000000000000C0
:10043C0000000000000000000000000000000000B0
:10044C0000000000000000000000000000000000A0
:10045C000000000000000000000000000000000090
:10046C000000000000000000000000000000000080
:10047C000000000000000000000000000000000070
:10048C000000000000000000000000000000000060
:10049C000000000000000000000000000000000050
:1004AC000000000000000000000000000000000040
:1004BC0000000000306230313031303130312C30BE
:0404CC006231310068
:00000001FF
