:1000000012C02CC02BC02AC029C028C027C026C0BF
:1000100025C024C023C022C021C020C01FC01EC0D4
:100020001DC01CC01BC011241FBECFE5D4E0DEBF25
:10003000CDBF13E0A0E6B0E0ECE7F1E002C0059030
:100040000D92AE3EB107D9F713E0AEEEB3E001C0BA
:100050001D92A53FB107E1F740D08EC0D1CFCF931D
:10006000DF938091F1039091F203A0EBB3E040E0C5
:1000700050E060E070E021C0EB01C757DD4F20E4A5
:100080003FEF8C9190E0FC01EE0FFF1FE80FF91F8E
:10009000EE0FFF1FE20FF31FE05AFF4F808189939D
:1000A0002F5F3F4F8FEF2634380759F74F5F5F4F71
:1000B000695F7F4F119686E090E048335105E0F28A
:1000C0009093F2038093F1035093F4034093F3036E
:1000D00080E090E0DF91CF910895CF93DF939FEF81
:1000E00097BB8FE384BB91BBBADF6091EE03409175
:1000F000EF035091F00320E030E07FEFA1E0B0E0AB
:10010000C8EED3E072BB2830310554F4CD01022E85
:1001100002C0880F991F0A94E2F788BB15BA0DC078
:1001200028503040CD01022E02C0880F991F0A943A
:10013000E2F7285F3F4F85BB18BAFA01E21BF30BC9
:10014000E356FD4F8081809582BB2F5F3F4F2F305C
:10015000310514F020E030E06F5F633318F04F5F3B
:100160005F4F60E081E04530580710F040E050E01C
:0C017000CE010197F1F7C6CFF894FFCF45
:10017C0000000000000000065F06000007030007F7
:10018C000300FFFFFFFFFFFF242B6A120000631325
:10019C000864630036495620500000070300000035
:1001AC00003E4100000000413E000000083E1C3EA5
:1001BC00080008083E08080000E06000000008087D
:1001CC00080808000060600000002010080402000D
:1001DC003E5149453E0000427F4000006251494972
:1001EC0046002249494936001814127F10002F4945
:1001FC00494931003C4A4949300001710905030065
:10020C00364949493600064949291E00006C6C00E4
:10021C00000000EC6C0000000814224100002424B3
:10022C00242424000041221408000201590906006C
:10023C003E415D551E007E0909097E007F494949F2
:10024C0036003E41414122007F4141413E007F4901
:10025C00494941007F09090901003E4149497A0099
:10026C007F0808087F0000417F410000304040407B
:10027C003F007F08142241007F40404040007F0235
:10028C0004027F007F0204087F003E4141413E0092
:10029C007F09090906003E4151215E007F090919B9
:1002AC00660026494949320001017F0101003F40A7
:1002BC0040403F001F2040201F003F403C403F007B
:1002CC00631408146300070870080700714945435C
:1002DC000000007F41410000020408102000004192
:1002EC00417F0000040201020400808080808000B5
:1002FC000003070000002054545478007F44444409
:10030C003800384444442800384444447F0038546E
:10031C0054541800087E0909000018A4A4A47C00F9
:10032C007F040478000000007D0000004080847D84
:10033C0000007F102844000000007F4000007C0477
:10034C00180478007C0404780000384444443800D5
:10035C00FC444444380038444444FC00447844048D
:10036C000800085454542000043E442400003C402F
:10037C00207C00001C2040201C003C6030603C00B5
:10038C006C10106C00009CA0603C00006454544C39
:10039C000000020102010000030000000000000048
:1003AC000000000000000000000000000000000041
:1003BC000000000000000000000000000000000031
:1003CC000000000000000000000000000000000021
:1003DC000000000000000000000000000000000011
:1003EC000000000000000000000000000000000001
:1003FC0000000000000000000000000000000000F1
:10040C0000000000000000000000000000000000E0
:10041C0000000000000000000000000000000000D0
:10042C0000000000000000000000000000000000C0
:10043C0000000000000000000000000000000000B0
:10044C0000000000000000000000000000000000A0
:10045C000000000000000000000000000000000090
:10046C000000000000000000000000000000000080
:10047C000000000000000000000000000000000070
:10048C000000000000000000000000000000000060
:10049C000000000000000000000000000000000050
:1004AC000000000000000000000000000000000040
:1004BC000000000000000000000000000000000030
:1004CC002042526943533A204255494C4420524FE2
:1004DC00424F542043524541544520534349454EC5
:1004EC004345200000000000000000000000000058
:0E04FC000000000000000000000000000000F2
:00000001FF
