:100000000C944A000C94DE000C94AE000C94670033
:100010000C9467000C9467000C9467000C946700C4
:100020000C9467000C9467000C9467000C946700B4
:100030000C9467000C9467000C9467000C946700A4
:100040000C9467000C9467000C9467000C94670094
:100050000C946700001F000000001F00001F10101C
:1000600010101F00001F181818181F00001F1C1C5C
:100070001C1C1F00001F1E1E1E1E1F00001F1F1F16
:100080001F1F1F0003070F1F0F070300181C1E1F51
:100090001E1C180011241FBECFE5D4E0DEBFCDBF6B
:1000A00010E0A0E6B0E0EAE9FCE002C005900D92A5
:1000B000A436B107D9F710E0A4E6B0E001C01D9264
:1000C000A637B107E1F70E9469000C944B060C9427
:1000D00000000F931F93CF93DF930E9440020E9472
:1000E000D90180E090E00E945F0580936400109247
:1000F000650082E090E00E940E0182E090E00E94A4
:1001000045017894C6E6D0E000E610E000D000D0CB
:1001100000D0EDB7FEB73196ADB7BEB71296DC93FF
:10012000CE931197138302838091640090916500B0
:10013000958384830E945E038DB79EB706960FB6A3
:10014000F8949EBF0FBE8DBF80E090E060E070E04D
:100150000E94F601CE010E942C03D8CF1F920F926D
:100160000FB60F9211242F933F934F935F936F938A
:100170007F938F939F93AF93BF93EF93FF93609180
:1001800064007091650061507040709365006093E9
:10019000640080E090E00E946705FF91EF91BF91BD
:1001A000AF919F918F917F916F915F914F913F910F
:1001B0002F910F900FBE0F901F9018951F920F92C6
:1001C0000FB60F9211242F933F934F935F936F932A
:1001D0007F938F939F93AF93BF93EF93FF93609120
:1001E0006400709165006F5F7F4F7093650060934E
:1001F000640080E090E00E946705FF91EF91BF915D
:10020000AF919F918F917F916F915F914F913F91AE
:100210002F910F900FBE0F901F9018959C018A98F8
:10022000929A8BB780648BBF8AB780648ABF213073
:10023000310581F0223031051CF4232B41F0089563
:100240002230310569F023303105B9F410C085B78B
:100250008E7F02C085B7816085BF85B78D7F05C061
:1002600085B78E7F85BF85B7826085BF089585B7C6
:10027000816085BF85B7826085BF08958BB78F7B0E
:100280008BBF8AB78F7B8ABF08959C018B98939A06
:100290008BB780688BBF8AB780688ABF21303105F1
:1002A00081F0223031051CF4232B41F008952230D7
:1002B000310569F023303105B9F410C085B78B7F63
:1002C00002C085B7846085BF85B7877F05C085B7C5
:1002D0008B7F85BF85B7886085BF089585B78460AB
:1002E00085BF85B7886085BF08958BB78F778BBF33
:1002F0008AB78F778ABF08959C01BA98C29A8BB744
:1003000080628BBF8AB780628ABF2115310521F0D8
:100310002130310541F404C084B78F7B84BF089538
:1003200084B7806484BF08958BB78F7D8BBF8AB7F5
:100330008F7D8ABF0895282F207F25BBA89AAA9A6F
:1003400028EE33E0F9013197F1F7AA98A898F9015E
:100350003197F1F790E044E0880F991F4A95E1F753
:1003600085BBA89AAA9AC9010197F1F7AA98A898FB
:10037000C9010197F1F70895282F207F25BBAA9A7C
:1003800028EE33E0F9013197F1F7AA98F901319796
:10039000F1F790E054E0880F991F5A95E1F785BB7B
:1003A000AA9AC9010197F1F7AA98C9010197F1F733
:1003B000089581E00E94BC01089582E00E94BC0182
:1003C00008950F931F93CF93DF93062F009749F063
:1003D000EC0110E004C089910E949B011F5F10177F
:1003E000D0F3DF91CF911F910F910895623031F0DA
:1003F000633031F0613029F4805C03C08C5E01C051
:100400008C5A80680E94BC0108951F93CF93DF939C
:10041000EC01862F642F0E94F60110E003C00E94B9
:100420009B011F5FFE01E10FF11D84918823B9F745
:10043000DF91CF911F910895EF92FF920F931F9339
:10044000CF93DF937C01162F110F110F110F106442
:10045000C0E0D0E0F701EC0FFD1F0491812F8C0F5D
:100460000E94BC01802F0E949B012196C830D105BB
:1004700089F7DF91CF911F910F91FF90EF90089531
:100480001F93CF93DF9388E99AE30197F1F715BAA9
:1004900015BA84B3806F84BB84B3876084BB80E368
:1004A00085BBAA9A28EE33E0F9013197F1F7AA98B3
:1004B000F9013197F1F785BBAA9AC9010197F1F7C4
:1004C000AA98C9010197F1F780E285BBAA9AC901F0
:1004D0000197F1F7AA98C9010197F1F788E20E9404
:1004E000BC018CE00E94BC01C4E5D0E060E0162FA6
:1004F0001F5FCE010E941C022896612F1830B9F7A9
:10050000DF91CF911F9108950F931F93CF93DF93A6
:10051000C0E0D0E0082F10E004C08EE10E94BC01D2
:100520002196C017D107CCF3DF91CF911F910F9186
:1005300008950F931F93CF93DF93C0E0D0E0082F6F
:1005400010E004C088E10E94BC012196C017D107C9
:10055000CCF3DF91CF911F910F9108958EE00E940F
:10056000BC0108958FE00E94BC0108958CE00E94B8
:10057000BC01089588E00E94BC0108958CE00E94AF
:10058000BC0108950F931F93CF93DF93C0E0D0E099
:10059000082F10E004C080E10E94BC012196C01722
:1005A000D107CCF3DF91CF911F910F9108950F9355
:1005B0001F93CF93DF93C0E0D0E0082F10E004C07A
:1005C00084E10E94BC012196C017D107CCF3DF91D2
:1005D000CF911F910F910895DF92EF92FF920F93A9
:1005E0001F93CF93DF93D42E96E0899FC0011124EF
:1005F000242F30E0AC01429FC001439F900D529FD9
:10060000900D112470E00E944B03EB01CB0166E0DA
:1006100070E00E943703E82EFF2400E010E012C0D3
:10062000C8010596C817D90710F085E006C0C017A5
:10063000D10710F08E2D01C080E00E949B01F39441
:100640000A5F1F4FFD1460F3DF91CF911F910F914F
:10065000FF90EF90DF900895DC010D900020E9F706
:100660001197A81BB90B6A2F0E94E1010895AA1BDC
:10067000BB1B51E107C0AA1FBB1FA617B70710F08D
:10068000A61BB70B881F991F5A95A9F780959095BF
:10069000BC01CD01089597FB092E07260AD077FDEE
:1006A00004D0E5DF06D000201AF4709561957F4FE5
:1006B0000895F6F7909581959F4F0895AEE0B0E0CC
:1006C000E4E6F3E00C9422060D891E8986E08C8313
:1006D0001A8309838FEF9FE79E838D839E01275E98
:1006E0003F4FCE0101966F89788DA9010E94820348
:1006F0002F813885020F131FF80110822E96E4E037
:100700000C943E06ABE0B0E0E8E8F3E00C9414068D
:100710003C012B015A01FC0117821682838181FD65
:1007200003C06FEF7FEFC6C19AE0892E1E010894C7
:10073000211C311CF3012381F20123FD859123FF4C
:1007400081912F01882309F4B2C1853239F423FD48
:10075000859123FF81912F01853229F490E0B30127
:100760000E948A05E7CF982FFF24EE249924FFE109
:10077000FF15D0F09B3269F09C3228F4903259F08A
:10078000933291F40EC09D3249F0903369F441E008
:1007900024C052E0F52A84E0F82A28C098E0F92A1B
:1007A00025C0E0E1FE2A22C0F7FC29C0892F805332
:1007B0008A3070F4F6FE05C0989C902C1124980E97
:1007C00015C0E89CE02C1124E80EF0E2FF2A0EC0D0
:1007D0009E3229F4F6FC6BC140E4F42A07C09C3633
:1007E00019F450E8F52A02C0983649F4F20123FDC5
:1007F000959123FF91912F01992309F0B8CF892F6B
:100800008554833018F08052833038F444E050E04F
:10081000A40EB51E5FE359830FC0933631F09337B2
:1008200079F0933509F056C020C0F50180818983A5
:1008300042E050E0A40EB51E610101E010E012C0DC
:10084000F501C080D180F6FC03C06FEF7FEF02C0DE
:10085000692D70E042E050E0A40EB51EC6010E9472
:100860007F058C015FE7F52214C0F501C080D180BF
:10087000F6FC03C06FEF7FEF02C0692D70E042E02D
:1008800050E0A40EB51EC6010E9474058C0150E80C
:10089000F52AF3FE07C01AC080E290E0B3010E947F
:1008A0008A05EA948E2D90E008171907A8F30EC068
:1008B000F601F7FC8591F7FE81916F0190E0B3019D
:1008C0000E948A05E110EA940150104001151105BB
:1008D00079F7EAC0943611F0993669F5F7FE08C049
:1008E000F501208131814281538184E090E00AC08A
:1008F000F501808191819C01442737FD4095542F5B
:1009000082E090E0A80EB91E9FE6F92257FF09C0C9
:1009100050954095309521953F4F4F4F5F4FE0E800
:10092000FE2ACA01B901A1012AE030E00E94B60501
:10093000D82ED21840C0953729F41F2D1F7E2AE0EB
:1009400030E01DC01F2D197F9F3661F0903720F4D5
:10095000983509F0ACC00FC0903739F0983709F0DE
:10096000A6C004C028E030E00AC0106114FD146085
:1009700020E130E004C014FD166020E132E017FFF2
:1009800008C0F501608171818281938144E050E06B
:1009900008C0F50180819181BC0180E090E042E0D7
:1009A00050E0A40EB51EA1010E94B605D82ED218A3
:1009B0008FE7F82EF122F6FE0BC05EEFF522D91478
:1009C00038F4F4FE07C0F2FC05C08FEEF82202C036
:1009D0001D2D01C0192DF4FE0DC0FE01ED0DF11D00
:1009E0008081803319F499EEF92208C01F5FF2FE6E
:1009F00005C003C08F2D867809F01F5F0F2DF3FC13
:100A000014C0F0FE0FC01E1510F09D2C0BC09D2CC5
:100A10009E0C911A1E2D06C080E290E0B3010E9448
:100A20008A051F5F1E15C0F304C01E1510F4E11ADD
:100A300001C0EE2404FF0FC080E390E0B3010E94E8
:100A40008A0502FF1DC001FD03C088E790E00EC0CB
:100A500088E590E00BC0802F867891F001FF02C0FE
:100A60008BE201C080E2F7FC8DE290E0B3010E94CE
:100A70008A0506C080E390E0B3010E948A059A943B
:100A8000D914C0F3DA94F101ED0DF11D808190E0ED
:100A9000B3010E948A05DD20A9F706C080E290E03C
:100AA000B3010E948A05EA94EE20C1F743CEF30118
:100AB00066817781CB012B96E2E10C943006E199B7
:100AC000FECF9FBB8EBBE09A99278DB30895262F4A
:100AD000E199FECF9FBB8EBB2DBB0FB6F894E29A77
:100AE000E19A0FBE01960895FC0105906150704097
:100AF0000110D8F7809590958E0F9F1F0895FC01E7
:100B00006150704001900110D8F7809590958E0F3C
:100B10009F1F08950F931F93CF93DF938C01EB01D9
:100B20008B8181FF1BC082FF0DC02E813F818C8194
:100B30009D812817390764F4E881F9810193F983CD
:100B4000E88306C0E885F985802F0995892B31F463
:100B50008E819F8101969F838E8302C00FEF1FEFCE
:100B6000C801DF91CF911F910F910895FA01AA2733
:100B7000283051F1203181F1E8946F936E7F6E5FE0
:100B80007F4F8F4F9F4FAF4FB1E03ED0B4E03CD08E
:100B9000670F781F891F9A1FA11D680F791F8A1F71
:100BA000911DA11D6A0F711D811D911DA11D20D0D8
:100BB00009F468943F912AE0269F11243019305D92
:100BC0003193DEF6CF010895462F4770405D419383
:100BD000B3E00FD0C9F7F6CF462F4F70405D4A33D0
:100BE00018F0495D31FD4052419302D0A9F7EACF98
:100BF000B4E0A6959795879577956795BA95C9F7C7
:100C000000976105710508959B01AC010A2E0694B9
:100C10005795479537952795BA95C9F7620F731F72
:100C2000841F951FA01D08952F923F924F925F92AF
:100C30006F927F928F929F92AF92BF92CF92DF92EC
:100C4000EF92FF920F931F93CF93DF93CDB7DEB751
:100C5000CA1BDB0B0FB6F894DEBF0FBECDBF0994E5
:100C60002A88398848885F846E847D848C849B843C
:100C7000AA84B984C884DF80EE80FD800C811B814A
:100C8000AA81B981CE0FD11D0FB6F894DEBF0FBE79
:0A0C9000CDBFED010895F894FFCFE9
:040C9A00253364009A
:00000001FF
