:100000000C944A000C9467000C9467000C946700F1
:100010000C9467000C9467000C9467000C946700C4
:100020000C9467000C9467000C9467000C946700B4
:100030000C9467000C9467000C9467000C946700A4
:100040000C9467000C9467000C9467000C94670094
:100050000C946700001F000000001F00001F10101C
:1000600010101F00001F181818181F00001F1C1C5C
:100070001C1C1F00001F1E1E1E1E1F00001F1F1F16
:100080001F1F1F0003070F1F0F070300181C1E1F51
:100090001E1C180011241FBECFE5D4E0DEBFCDBF6B
:1000A00010E0A0E6B0E0E8E2F8E002C005900D92B2
:1000B000AA3BB107D9F710E0AAEBB0E001C01D924E
:1000C000A23DB107E1F70E9494030C9412040C9432
:1000D0000000282F207F25BBA89AAA9A28EE33E09B
:1000E000F9013197F1F7AA98A898F9013197F1F73A
:1000F00090E044E0880F991F4A95E1F785BBA89AE4
:10010000AA9AC9010197F1F7AA98A898C90101977D
:10011000F1F70895282F207F25BBAA9A28EE33E017
:10012000F9013197F1F7AA98F9013197F1F790E0C9
:1001300054E0880F991F5A95E1F785BBAA9AC90127
:100140000197F1F7AA98C9010197F1F7089581E0A5
:100150000E948A00089582E00E948A0008950F9309
:100160001F93CF93DF93062F009749F0EC0110E027
:1001700004C089910E9469001F5F1017D0F3DF91BE
:10018000CF911F910F910895623031F0633031F0BB
:10019000613029F4805C03C08C5E01C08C5A806899
:1001A0000E948A0008951F93CF93DF93EC01862F5E
:1001B000642F0E94C40010E003C00E9469001F5F0A
:1001C000FE01E10FF11D84918823B9F7DF91CF91F2
:1001D0001F910895EF92FF920F931F93CF93DF9398
:1001E0007C01162F110F110F110F1064C0E0D0E029
:1001F000F701EC0FFD1F0491812F8C0F0E948A00E4
:10020000802F0E9469002196C830D10589F7DF91BF
:10021000CF911F910F91FF90EF9008951F93CF936F
:10022000DF9388E99AE30197F1F715BA15BA84B319
:10023000806F84BB84B3876084BB80E385BBAA9A4C
:1002400028EE33E0F9013197F1F7AA98F9013197D7
:10025000F1F785BBAA9AC9010197F1F7AA98C901DC
:100260000197F1F780E285BBAA9AC9010197F1F7DE
:10027000AA98C9010197F1F788E20E948A008CE0F0
:100280000E948A00C4E5D0E060E0162F1F5FCE0117
:100290000E94EA002896612F1830B9F7DF91CF91BC
:1002A0001F9108950F931F93CF93DF93C0E0D0E089
:1002B000082F10E004C08EE10E948A002196C0172A
:1002C000D107CCF3DF91CF911F910F9108950F9338
:1002D0001F93CF93DF93C0E0D0E0082F10E004C05D
:1002E00088E10E948A002196C017D107CCF3DF91E4
:1002F000CF911F910F9108958EE00E948A0008957A
:100300008FE00E948A0008958CE00E948A00089580
:1003100088E00E948A0008958CE00E948A00089577
:100320000F931F93CF93DF93C0E0D0E0082F10E02E
:1003300004C080E10E948A002196C017D107CCF347
:10034000DF91CF911F910F9108950F931F93CF933A
:10035000DF93C0E0D0E0082F10E004C084E10E94E9
:100360008A002196C017D107CCF3DF91CF911F915E
:100370000F910895DF92EF92FF920F931F93CF9307
:10038000DF93D42E96E0899FC0011124242F30E002
:10039000AC01429FC001439F900D529F900D1124CC
:1003A00070E00E94EA03EB01CB0166E070E00E947E
:1003B000D603E82EFF2400E010E012C0C801059625
:1003C000C817D90710F085E006C0C017D10710F094
:1003D0008E2D01C080E00E946900F3940A5F1F4FD8
:1003E000FD1460F3DF91CF911F910F91FF90EF907B
:1003F000DF90089581E08ABB8DE08A95F1F72DE0CA
:1004000011C08AB380958BBB822F8A95F1F799B37F
:100410008BB3981721F089B3282F30E008C08AB336
:10042000880F8ABB8AB3882361F720E030E0C901D6
:100430000895949A959A949880E197E224E630E0A2
:10044000F9013197F1F70197D9F7949A80E593EC88
:1004500024E630E0F9013197F1F70197D9F7959843
:1004600080E197E224E630E0F9013197F1F7019756
:10047000D9F7959A0895979AFFCFCF93DF9320915C
:10048000CE003091CF002115310521F41092BD002E
:100490001092BC008091BC009091BD00892B09F0A6
:1004A00040C12E3B310509F496C02F3B31050CF5B8
:1004B0002E37310509F4C1C02F3731056CF42B37C5
:1004C000310509F4CCC02D37310509F4BFC02737F9
:1004D000310509F026C1D2C02B3B310509F48DC08E
:1004E0002D3B310509F480C0273B310509F019C1C6
:1004F0008DC02E3D310509F446C02F3D31056CF409
:100500002B3D310509F451C02D3D310509F444C09E
:10051000273D310509F005C151C02B3E310509F1D8
:100520002C3E31052CF4273E310509F0FAC022C0DB
:100530002D3E310569F02E3E310509F0F2C0809163
:10054000BA009091BB00FC01EC55FF4F21E38FC036
:100550008091BA009091BB00FC01EC55FF4F22E363
:1005600086C08091BA009091BB00FC01EC55FF4F12
:1005700023E37DC08091BA009091BB00FC01EC5553
:10058000FF4F29E274C08091BA009091BB00FC013A
:10059000EC55FF4F24E36BC08091BA009091BB00F3
:1005A000FC01EC55FF4F25E362C08091BA009091A9
:1005B000BB00FC01EC55FF4F26E359C01092BB0075
:1005C0001092BA000E94A70084EA90E060E670E012
:1005D0000E94FD0385C08091BA009091BB00FC0190
:1005E000EC55FF4F27E343C08091BA009091BB00C8
:1005F000FC01EC55FF4F28E33AC08091BA0090917E
:10060000BB00FC01EC55FF4F29E331C08091BA00DB
:100610009091BB00181619062CF401979093BB001B
:100620008093BA000E94A700E091BA00F091BB004D
:10063000EC55FF4F80E2808353C08091BA009091C7
:10064000BB00FC01EC55FF4F2AE211C08091BA00BB
:100650009091BB00FC01EC55FF4F20E308C0809156
:10066000BA009091BB00FC01EC55FF4F23E22083C0
:1006700001969093BB008093BA0032C01092BB00E9
:100680001092BA0084EA90E064EB70E045E050E03C
:100690000E940404CEEBD0E0009749F584EA90E094
:1006A00060E670E00E94FD030E94A700CE0169E6AB
:1006B00070E00E94FD0380E090E060E070E00E9446
:1006C000C400FE0101900020E9F73197EC1BFD0BFF
:1006D000CE01BF010E94AF000E9419020E94A70034
:1006E00081E090E09093BD008093BC001AC00E940E
:1006F000A700CE0169E770E00E94FD0380E090E072
:1007000060E070E00E94C400FE0101900020E9F763
:100710003197EE5BF040CE01BF010E94AF00979A87
:10072000FFCFDF91CF910895CF93DF931ABA8FEF68
:100730008BBB81B3806381BB82B3806382BB8F9AA2
:10074000979A0E940E010E94A700CEEBD0E00E9473
:10075000FA019093CF008093CE000E943D028EEB71
:1007600090E069E870E00E94FD0380E090E060E0C6
:1007700070E00E94C400FE0101900020E9F731976B
:10078000EE5BF0408EEB90E0BF010E94AF0080E096
:1007900090E061E070E00E94C4006091BA00709146
:1007A000BB0088E990E00E94AF00D1CFAA1BBB1B21
:1007B00051E107C0AA1FBB1FA617B70710F0A61B61
:1007C000B70B881F991F5A95A9F780959095BC0182
:1007D000CD01089597FB092E07260AD077FD04D096
:1007E000E5DF06D000201AF4709561957F4F0895DB
:1007F000F6F7909581959F4F0895FB01DC010190DC
:100800000D920020E1F70895FB01DC0141505040BA
:1008100030F08D910190801919F40020B9F7881BF0
:08082000990B0895F894FFCF35
:100828002020202020202020002050415353574FC3
:100838005244205249474854002050415353574F7F
:1008480052442057524F4E4700456E7465722050EF
:10085800617373776F7264002A2A2A2A2A2A2A2A3D
:100868002A2A2A006A6A6A6A00000000000000005A
:0A0878000000000031323334350077
:00000001FF
