:100000000C944A000C945F000C945F000C945F0009
:100010000C945F000C945F000C945F000C945F00E4
:100020000C945F000C945F000C945F000C945F00D4
:100030000C945F000C945F000C945F000C945F00C4
:100040000C945F000C945F000C945F000C945F00B4
:100050000C945F00001F000000001F00001F101024
:1000600010101F00001F181818181F00001F1C1C5C
:100070001C1C1F00001F1E1E1E1E1F00001F1F1F16
:100080001F1F1F0003070F1F0F070300181C1E1F51
:100090001E1C180011241FBECFE5D4E0DEBFCDBF6B
:1000A00010E0A0E6B0E0E4E7F4E002C005900D92B5
:1000B000A636B107D9F70E9461000C9438020C945F
:1000C0000000CF93DF930E941A010E94B300C0E1A9
:1000D000D7E285E060E00E94D00080E690E00E94D8
:1000E0000602CE010197F1F7F4CF282F207F25BB20
:1000F000A89AAA9A28EE33E0F9013197F1F7AA9865
:10010000A898F9013197F1F790E044E0880F991F22
:100110004A95E1F785BBA89AAA9AC9010197F1F718
:10012000AA98A898C9010197F1F70895282F207F70
:1001300025BBAA9A28EE33E0F9013197F1F7AA9886
:10014000F9013197F1F790E054E0880F991F5A9523
:10015000E1F785BBAA9AC9010197F1F7AA98C901ED
:100160000197F1F7089581E00E949600089582E0DA
:100170000E94960008950F931F93CF93DF93062F4D
:10018000009749F0EC0110E004C089910E947500CD
:100190001F5F1017D0F3DF91CF911F910F9108953A
:1001A000623031F0633031F0613029F4805C03C09B
:1001B0008C5E01C08C5A80680E94960008951F933F
:1001C000CF93DF93EC01862F642F0E94D00010E0C4
:1001D00003C00E9475001F5FFE01E10FF11D8491B5
:1001E0008823B9F7DF91CF911F910895EF92FF9285
:1001F0000F931F93CF93DF937C01162F110F110FD5
:10020000110F1064C0E0D0E0F701EC0FFD1F049166
:10021000812F8C0F0E949600802F0E9475002196DE
:10022000C830D10589F7DF91CF911F910F91FF90D1
:10023000EF9008951F93CF93DF9388E99AE3019796
:10024000F1F715BA15BA84B3806F84BB84B38760A5
:1002500084BB80E385BBAA9A28EE33E0F90131978D
:10026000F1F7AA98F9013197F1F785BBAA9AC9016C
:100270000197F1F7AA98C9010197F1F780E285BBD0
:10028000AA9AC9010197F1F7AA98C9010197F1F754
:1002900088E20E9496008CE00E949600C4E5D0E0BF
:1002A00060E0162F1F5FCE010E94F6002896612F96
:1002B0001830B9F7DF91CF911F9108950F931F93D5
:1002C000CF93DF93C0E0D0E0082F10E004C08EE1B0
:1002D0000E9496002196C017D107CCF3DF91CF91F1
:1002E0001F910F9108950F931F93CF93DF93C0E059
:1002F000D0E0082F10E004C088E10E94960021960B
:10030000C017D107CCF3DF91CF911F910F910895C2
:100310008EE00E94960008958FE00E949600089556
:100320008CE00E949600089588E00E94960008954F
:100330008CE00E94960008950F931F93CF93DF9354
:10034000C0E0D0E0082F10E004C080E10E949600D9
:100350002196C017D107CCF3DF91CF911F910F9158
:1003600008950F931F93CF93DF93C0E0D0E0082F41
:1003700010E004C084E10E9496002196C017D107C6
:10038000CCF3DF91CF911F910F910895DF92EF92FF
:10039000FF920F931F93CF93DF93D42E96E0899F04
:1003A000C0011124242F30E0AC01429FC001439FC3
:1003B000900D529F900D112470E00E942502EB01D8
:1003C000CB0166E070E00E941102E82EFF2400E0FD
:1003D00010E012C0C8010596C817D90710F085E0D3
:1003E00006C0C017D10710F08E2D01C080E00E941A
:1003F0007500F3940A5F1F4FFD1460F3DF91CF91F6
:100400001F910F91FF90EF90DF900895DC010D9008
:100410000020E9F71197A81BB90B6A2F0E94BB00B7
:100420000895AA1BBB1B51E107C0AA1FBB1FA6173B
:10043000B70710F0A61BB70B881F991F5A95A9F78D
:1004400080959095BC01CD01089597FB092E072654
:100450000AD077FD04D0E5DF06D000201AF47095AD
:1004600061957F4F0895F6F7909581959F4F089578
:04047000F894FFCF2E
:06047400425269435300EF
:00000001FF
