:100000000C944D000C946A000C946A000C946A00E5
:100010000C946A000C946A000C946A000C946A00B8
:100020000C946A000C946A000C946A000C946A00A8
:100030000C946A000C946A000C946A000C946A0098
:100040000C946A000C946A000C946A000C946A0088
:100050000C946A000102030405001F000000001F49
:1000600000001F101010101F00001F181818181F74
:1000700000001F1C1C1C1C1F00001F1E1E1E1E1F1C
:1000800000001F1F1F1F1F1F0003070F1F0F070365
:1000900000181C1E1F1E1C18000011241FBECFE5D7
:1000A000D4E0DEBFCDBF10E0A0E6B0E0EAEAFAE0BF
:1000B00002C005900D92A436B107D9F710E0A4E66E
:1000C000B0E001C01D92A437B107E1F70E946C00B7
:1000D0000C9453050C940000CF92DF92EF92FF92A4
:1000E0000F931F93CF93DF930E945D010E94F60050
:1000F000C0E0D0E004E610E090E6C92E90E0D92EF2
:1001000084E6E82EF12CFE01EC5AFF4F849100D0DA
:1001100000D000D0EDB7FEB73196ADB7BEB712969E
:100120001C930E931197D382C282848315820E94FE
:100130007B028DB79EB706960FB6F8949EBF0FBE92
:100140008DBF80E090E060E070E00E941301C80184
:100150000E9449022196C530D10514F0C0E0D0E0DC
:1001600080E197E2F7013197F1F70197D9F7CBCF0B
:10017000282F207F25BBA89AAA9A28EE33E0F90100
:100180003197F1F7AA98A898F9013197F1F790E023
:1001900044E0880F991F4A95E1F785BBA89AAA9A6F
:1001A000C9010197F1F7AA98A898C9010197F1F739
:1001B0000895282F207F25BBAA9A28EE33E0F90165
:1001C0003197F1F7AA98F9013197F1F790E054E0EF
:1001D000880F991F5A95E1F785BBAA9AC901019723
:1001E000F1F7AA98C9010197F1F7089581E00E94FB
:1001F000D900089582E00E94D90008950F931F93BB
:10020000CF93DF93062F009749F0EC0110E004C074
:1002100089910E94B8001F5F1017D0F3DF91CF9132
:100220001F910F910895623031F0633031F06130E9
:1002300029F4805C03C08C5E01C08C5A80680E94E7
:10024000D90008951F93CF93DF93EC01862F642F7D
:100250000E94130110E003C00E94B8001F5FFE015E
:10026000E10FF11D84918823B9F7DF91CF911F91A0
:100270000895EF92FF920F931F93CF93DF937C012A
:10028000162F110F110F110F1064C0E0D0E0F7010D
:10029000EC0FFD1F0491812F8C0F0E94D900802F3D
:1002A0000E94B8002196C830D10589F7DF91CF911F
:1002B0001F910F91FF90EF9008951F93CF93DF93BD
:1002C00088E99AE30197F1F715BA15BA84B3806FFC
:1002D00084BB84B3876084BB80E385BBAA9A28EE85
:1002E00033E0F9013197F1F7AA98F9013197F1F765
:1002F00085BBAA9AC9010197F1F7AA98C90101978C
:10030000F1F780E285BBAA9AC9010197F1F7AA9893
:10031000C9010197F1F788E20E94D9008CE00E94A0
:10032000D900C9E5D0E060E0162F1F5FCE010E9422
:1003300039012896612F1830B9F7DF91CF911F91BD
:1003400008950F931F93CF93DF93C0E0D0E0082F61
:1003500010E004C08EE10E94D9002196C017D10799
:10036000CCF3DF91CF911F910F9108950F931F93BD
:10037000CF93DF93C0E0D0E0082F10E004C088E105
:100380000E94D9002196C017D107CCF3DF91CF91FD
:100390001F910F9108958EE00E94D90008958FE07B
:1003A0000E94D90008958CE00E94D900089588E049
:1003B0000E94D90008958CE00E94D90008950F93FF
:1003C0001F93CF93DF93C0E0D0E0082F10E004C06C
:1003D00080E10E94D9002196C017D107CCF3DF91AC
:1003E000CF911F910F9108950F931F93CF93DF9398
:1003F000C0E0D0E0082F10E004C084E10E94D900E2
:100400002196C017D107CCF3DF91CF911F910F91A7
:100410000895DF92EF92FF920F931F93CF93DF9394
:10042000D42E96E0899FC0011124242F30E0AC0126
:10043000429FC001439F900D529F900D112470E088
:100440000E946802EB01CB0166E070E00E9454025A
:10045000E82EFF2400E010E012C0C8010596C8177E
:10046000D90710F085E006C0C017D10710F08E2D17
:1004700001C080E00E94B800F3940A5F1F4FFD1492
:1004800060F3DF91CF911F910F91FF90EF90DF907C
:100490000895DC010D900020E9F71197A81BB90B16
:1004A0006A2F0E94FE000895AA1BBB1B51E107C0E2
:1004B000AA1FBB1FA617B70710F0A61BB70B881FF4
:1004C000991F5A95A9F780959095BC01CD01089583
:1004D00097FB092E07260AD077FD04D0E5DF06D06A
:1004E00000201AF4709561957F4F0895F6F7909566
:1004F00081959F4F0895AEE0B0E0E1E8F2E00C9402
:100500002A050D891E8986E08C831A8309838FEF63
:100510009FE79E838D839E01275E3F4FCE0101960C
:100520006F89788DA9010E949F022F813885020F63
:10053000131FF80110822E96E4E00C944605ABE000
:10054000B0E0E5EAF2E00C941C053C012B015A01F5
:10055000FC0117821682838181FD03C06FEF7FEF5C
:10056000C6C19AE0892E1E010894211C311CF3019A
:100570002381F20123FD859123FF81912F0188239F
:1005800009F4B2C1853239F423FD859123FF8191AD
:100590002F01853229F490E0B3010E949204E7CF45
:1005A000982FFF24EE249924FFE1FF15D0F09B3211
:1005B00069F09C3228F4903259F0933291F40EC0D5
:1005C0009D3249F0903369F441E024C052E0F52AAD
:1005D00084E0F82A28C098E0F92A25C0E0E1FE2A44
:1005E00022C0F7FC29C0892F80538A3070F4F6FEB0
:1005F00005C0989C902C1124980E15C0E89CE02C06
:100600001124E80EF0E2FF2A0EC09E3229F4F6FC17
:100610006BC140E4F42A07C09C3619F450E8F52A6F
:1006200002C0983649F4F20123FD959123FF919180
:100630002F01992309F0B8CF892F8554833018F002
:100640008052833038F444E050E0A40EB51E5FE3DE
:1006500059830FC0933631F0933779F0933509F011
:1006600056C020C0F5018081898342E050E0A40E8D
:10067000B51E610101E010E012C0F501C080D1801B
:10068000F6FC03C06FEF7FEF02C0692D70E042E01F
:1006900050E0A40EB51EC6010E9487048C015FE7DE
:1006A000F52214C0F501C080D180F6FC03C06FEFC5
:1006B0007FEF02C0692D70E042E050E0A40EB51E4D
:1006C000C6010E947C048C0150E8F52AF3FE07C0A5
:1006D0001AC080E290E0B3010E949204EA948E2D49
:1006E00090E008171907A8F30EC0F601F7FC8591F2
:1006F000F7FE81916F0190E0B3010E949204E11036
:10070000EA94015010400115110579F7EAC09436BA
:1007100011F0993669F5F7FE08C0F50120813181A5
:100720004281538184E090E00AC0F501808191818B
:100730009C01442737FD4095542F82E090E0A80E9D
:10074000B91E9FE6F92257FF09C050954095309594
:1007500021953F4F4F4F5F4FE0E8FE2ACA01B90194
:10076000A1012AE030E00E94BE04D82ED21840C079
:10077000953729F41F2D1F7E2AE030E01DC01F2D64
:10078000197F9F3661F0903720F4983509F0ACC09E
:100790000FC0903739F0983709F0A6C004C028E0A0
:1007A00030E00AC0106114FD146020E130E004C0A4
:1007B00014FD166020E132E017FF08C0F5016081EA
:1007C00071818281938144E050E008C0F50180810D
:1007D0009181BC0180E090E042E050E0A40EB51EA3
:1007E000A1010E94BE04D82ED2188FE7F82EF12264
:1007F000F6FE0BC05EEFF522D91438F4F4FE07C004
:10080000F2FC05C08FEEF82202C01D2D01C0192D8B
:10081000F4FE0DC0FE01ED0DF11D8081803319F451
:1008200099EEF92208C01F5FF2FE05C003C08F2DAC
:10083000867809F01F5F0F2DF3FC14C0F0FE0FC087
:100840001E1510F09D2C0BC09D2C9E0C911A1E2D78
:1008500006C080E290E0B3010E9492041F5F1E1563
:10086000C0F304C01E1510F4E11A01C0EE2404FF09
:100870000FC080E390E0B3010E94920402FF1DC00C
:1008800001FD03C088E790E00EC088E590E00BC052
:10089000802F867891F001FF02C08BE201C080E2D8
:1008A000F7FC8DE290E0B3010E94920406C080E361
:1008B00090E0B3010E9492049A94D914C0F3DA94A0
:1008C000F101ED0DF11D808190E0B3010E949204D1
:1008D000DD20A9F706C080E290E0B3010E949204F7
:1008E000EA94EE20C1F743CEF30166817781CB0114
:1008F0002B96E2E10C943805FC01059061507040A4
:100900000110D8F7809590958E0F9F1F0895FC01D8
:100910006150704001900110D8F7809590958E0F2E
:100920009F1F08950F931F93CF93DF938C01EB01CB
:100930008B8181FF1BC082FF0DC02E813F818C8186
:100940009D812817390764F4E881F9810193F983BF
:10095000E88306C0E885F985802F0995892B31F455
:100960008E819F8101969F838E8302C00FEF1FEFC0
:10097000C801DF91CF911F910F910895FA01AA2725
:10098000283051F1203181F1E8946F936E7F6E5FD2
:100990007F4F8F4F9F4FAF4FB1E03ED0B4E03CD080
:1009A000670F781F891F9A1FA11D680F791F8A1F63
:1009B000911DA11D6A0F711D811D911DA11D20D0CA
:1009C00009F468943F912AE0269F11243019305D84
:1009D0003193DEF6CF010895462F4770405D419375
:1009E000B3E00FD0C9F7F6CF462F4F70405D4A33C2
:1009F00018F0495D31FD4052419302D0A9F7EACF8A
:100A0000B4E0A6959795879577956795BA95C9F7B8
:100A100000976105710508959B01AC010A2E0694AB
:100A20005795479537952795BA95C9F7620F731F64
:100A3000841F951FA01D08952F923F924F925F92A1
:100A40006F927F928F929F92AF92BF92CF92DF92DE
:100A5000EF92FF920F931F93CF93DF93CDB7DEB743
:100A6000CA1BDB0B0FB6F894DEBF0FBECDBF0994D7
:100A70002A88398848885F846E847D848C849B842E
:100A8000AA84B984C884DF80EE80FD800C811B813C
:100A9000AA81B981CE0FD11D0FB6F894DEBF0FBE6B
:0A0AA000CDBFED010895F894FFCFDB
:040AAA0025640000BF
:00000001FF
