:100000000C944A000C94D8000C9469000C9467007E
:100010000C9467000C9467000C9467000C946700C4
:100020000C9467000C9467000C9467000C946700B4
:100030000C9467000C9467000C9467000C946700A4
:100040000C9467000C9467000C9467000C94670094
:100050000C946700001F000000001F00001F10101C
:1000600010101F00001F181818181F00001F1C1C5C
:100070001C1C1F00001F1E1E1E1E1F00001F1F1F16
:100080001F1F1F0003070F1F0F070300181C1E1F51
:100090001E1C180011241FBECFE5D4E0DEBFCDBF6B
:1000A00010E0A0E6B0E0E4E6F7E002C005900D92B3
:1000B000A83FB107D9F710E0A8EFB0E001C01D924A
:1000C000AA3FB107E1F70E9447010C94B0030C94DA
:1000D00000001F920F920FB60F9211242F933F939F
:1000E0004F935F936F937F938F939F93AF93BF9340
:1000F000EF93FF938091F9008F5F8093F900853033
:1001000010F01092F9008091F900882331F484EE08
:1001100090E060E670E00E94A9038091F9008130D0
:1001200031F484EE90E063E770E00E94A9038091CF
:10013000F900823031F484EE90E064E870E00E94CF
:10014000A9038091F900833031F484EE90E065E9F1
:1001500070E00E94A9038091F900843031F484EEAC
:1001600090E066EA70E00E94A90380E061E00E94EE
:10017000410284EE90E060E10E942C0288EE93E060
:1001800024E630E0F9013197F1F70197D9F7FF91B3
:10019000EF91BF91AF919F918F917F916F915F91FF
:1001A0004F913F912F910F900FBE0F901F90189578
:1001B0001F920F920FB60F9211242F933F934F93DC
:1001C0005F936F937F938F939F93AF93BF93EF93BF
:1001D000FF938091F8008F5F8093F800853010F0D6
:1001E0001092F8008091F800882331F484EE90E0BA
:1001F00065EB70E00E94A9038091F800813031F432
:1002000084EE90E065EC70E00E94A9038091F80014
:10021000823031F484EE90E063ED70E00E94A90337
:100220008091F800833031F484EE90E065E970E06D
:100230000E94A9038091F800843031F484EE90E0AC
:1002400066EA70E00E94A90380E060E00E9441023B
:1002500084EE90E060E10E942C0288EE93E024E6B8
:1002600030E0F9013197F1F70197D9F7FF91EF915C
:10027000BF91AF919F918F917F916F915F914F91BE
:100280003F912F910F900FBE0F901F90189583EF05
:1002900081BB8CE082BB0E948B020E94240282E020
:1002A00090E00E94590180E090E00E9490017894D3
:1002B000FFCF9C018A98929A8BB780648BBF8AB7D4
:1002C00080648ABF2130310581F0223031051CF471
:1002D000232B41F008952230310569F02330310598
:1002E000B9F410C085B78E7F02C085B7816085BF25
:1002F00085B78D7F05C085B78E7F85BF85B7826046
:1003000085BF089585B7816085BF85B7826085BF49
:1003100008958BB78F7B8BBF8AB78F7B8ABF089579
:100320009C018B98939A8BB780688BBF8AB7806843
:100330008ABF2130310581F0223031051CF4232B96
:1003400041F008952230310569F023303105B9F4C8
:1003500010C085B78B7F02C085B7846085BF85B725
:10036000877F05C085B78B7F85BF85B7886085BFD0
:10037000089585B7846085BF85B7886085BF089577
:100380008BB78F778BBF8AB78F778ABF08959C0111
:10039000BA98C29A8BB780628BBF8AB780628ABFD5
:1003A0002115310521F02130310541F404C084B715
:1003B0008F7B84BF089584B7806484BF08958BB712
:1003C0008F7D8BBF8AB78F7D8ABF0895282F207FAE
:1003D00025BBA89AAA9A28EE33E0F9013197F1F7E4
:1003E000AA98A898F9013197F1F790E044E0880FB6
:1003F000991F4A95E1F785BBA89AAA9AC901019766
:10040000F1F7AA98A898C9010197F1F70895282F44
:10041000207F25BBAA9A28EE33E0F9013197F1F746
:10042000AA98F9013197F1F790E054E0880F991FED
:100430005A95E1F785BBAA9AC9010197F1F7AA98E5
:10044000C9010197F1F7089581E00E94070208951C
:1004500082E00E94070208950F931F93CF93DF93CA
:10046000062F009749F0EC0110E004C089910E942A
:10047000E6011F5F1017D0F3DF91CF911F910F910D
:100480000895623031F0633031F0613029F4805CDE
:1004900003C08C5E01C08C5A80680E9407020895D8
:1004A0001F93CF93DF93EC01862F642F0E944102AC
:1004B00010E003C00E94E6011F5FFE01E10FF11D85
:1004C00084918823B9F7DF91CF911F910895EF921E
:1004D000FF920F931F93CF93DF937C01162F110F81
:1004E000110F110F1064C0E0D0E0F701EC0FFD1FF9
:1004F0000491812F8C0F0E940702802F0E94E60139
:100500002196C830D10589F7DF91CF911F910F91C6
:10051000FF90EF9008951F93CF93DF9388E99AE3BC
:100520000197F1F715BA15BA84B3806F84BB84B311
:10053000876084BB80E385BBAA9A28EE33E0F9018B
:100540003197F1F7AA98F9013197F1F785BBAA9A8B
:10055000C9010197F1F7AA98C9010197F1F780E263
:1005600085BBAA9AC9010197F1F7AA98C901019719
:10057000F1F788E20E9407028CE00E940702C4E5BE
:10058000D0E060E0162F1F5FCE010E946702289620
:10059000612F1830B9F7DF91CF911F9108950F9314
:1005A0001F93CF93DF93C0E0D0E0082F10E004C08A
:1005B0008EE10E9407022196C017D107CCF3DF918C
:1005C000CF911F910F9108950F931F93CF93DF93B6
:1005D000C0E0D0E0082F10E004C088E10E940702CC
:1005E0002196C017D107CCF3DF91CF911F910F91C6
:1005F00008958EE00E94070208958FE00E9407028E
:1006000008958CE00E940702089588E00E94070286
:1006100008958CE00E94070208950F931F93CF93D3
:10062000DF93C0E0D0E0082F10E004C080E10E941A
:1006300007022196C017D107CCF3DF91CF911F910C
:100640000F9108950F931F93CF93DF93C0E0D0E0F5
:10065000082F10E004C084E10E9407022196C01711
:10066000D107CCF3DF91CF911F910F910895DF92C5
:10067000EF92FF920F931F93CF93DF93D42E96E0C8
:10068000899FC0011124242F30E0AC01429FC0019A
:10069000439F900D529F900D112470E00E9496038D
:1006A000EB01CB0166E070E00E948203E82EFF249C
:1006B00000E010E012C0C8010596C817D90710F075
:1006C00085E006C0C017D10710F08E2D01C080E074
:1006D0000E94E601F3940A5F1F4FFD1460F3DF915F
:1006E000CF911F910F91FF90EF90DF900895DC0163
:1006F0000D900020E9F71197A81BB90B6A2F0E94F3
:100700002C020895AA1BBB1B51E107C0AA1FBB1FE7
:10071000A617B70710F0A61BB70B881F991F5A958D
:10072000A9F780959095BC01CD01089597FB092EFE
:1007300007260AD077FD04D0E5DF06D000201AF4A2
:10074000709561957F4F0895F6F7909581959F4F2D
:100750000895FB01DC0101900D920020E1F708955E
:04076000F894FFCF3B
:1007640045787465726E616C20496E746572727539
:10077400707400206272696373776F726C642E63A5
:100784006F6D20007777772E73696D706C69666979
:10079400782E696E00456D626564646564205379E2
:1007A4007374656D200020492E492E542E4B616EC2
:1007B40070757220002052616A6976205368616EF8
:1007C4006B6172200020425269435320776F726C30
:1007D40064200053756D6D657220776F726B73685A
:1007E4006F70200000000000000000000000000006
:0807F4000000000000000000FD
:00000001FF
