:100000000C944A000C945F000C945F000C945F0009
:100010000C945F000C945F000C945F000C945F00E4
:100020000C945F000C945F000C945F000C945F00D4
:100030000C945F000C945F000C945F000C945F00C4
:100040000C945F000C945F000C945F000C945F00B4
:100050000C945F00001F000000001F00001F101024
:1000600010101F00001F181818181F00001F1C1C5C
:100070001C1C1F00001F1E1E1E1E1F00001F1F1F16
:100080001F1F1F0003070F1F0F070300181C1E1F51
:100090001E1C180011241FBECFE5D8E0DEBFCDBF67
:1000A00010E0A0E6B0E0E0E2FDE002C005900D92B5
:1000B000A037B107D9F70E940E030C948E060C945A
:1000C000000082E080B981B1836081B986B7846025
:1000D00086BF089586B78B7F86BF089584EA86BF62
:1000E00006B607FEFDCF089584E986BF06B604FC78
:1000F000FDCF089583B984E886BF06B607FEFDCF1D
:1001000081B1887F883149F081B1887F883229F0B8
:1001100081B190E0887F803409F491E0892F0895BF
:10012000FC01662319F086B7806402C086B78F7B16
:1001300086BF86B7806886BF06B607FEFDCF81B151
:10014000887F883531F081B1887F803511F080E07B
:10015000089583B1808381E008950F931F93182F32
:10016000062F0E946E0080ED0E947A00882371F0B5
:10017000812F0E947A00882349F0802F0E947A0004
:10018000882321F00E94740081E001C080E01F916B
:100190000F9108950F931F93CF93DF93EC01162FC8
:1001A000022F80E0642F0E94AD0081E0612F0E9449
:1001B000AD0000FD03C060E070E002C060E270E0EE
:1001C000CF71D070C0646C2B7D2B82E00E94AD009B
:1001D000DF91CF911F910F9108951F93CF93DF93DC
:1001E000182FEB010E946E0080ED0E947A00882398
:1001F000B1F0812F0E947A00882389F00E946E005E
:1002000081ED0E947A00882351F0CE0160E00E94C7
:100210009000882321F00E94740081E001C080E0FA
:10022000DF91CF911F9108950F931F93DF93CF9389
:100230000F92CDB7DEB780E08E010F5F1F4FB80180
:100240000E94ED0069816F77698380E00E94AD00B4
:1002500082E0B8010E94ED0069816064698382E0F8
:100260000E94AD000F90CF91DF911F910F910895E3
:10027000AF92BF92CF92DF92EF92FF920F931F93B4
:100280008C017B016A01590182E0B8010E94ED00F6
:10029000F801808191818F7390709183808325E034
:1002A000959587952A95E1F7F50191838083F8016B
:1002B000808191818F7190709183808381E0B701FB
:1002C0000E94ED00F701808191818F77907091837A
:1002D000808380E0B6010E94ED00F601808191816B
:1002E0008F779070918380831F910F91FF90EF9093
:1002F000DF90CF90BF90AF900895282F207F2BBB29
:10030000D89ADA9A28EE33E0F9013197F1F7DA98C2
:10031000D898F9013197F1F790E044E0880F991FE0
:100320004A95E1F78BBBD89ADA9AC9010197F1F7A0
:10033000DA98D898C9010197F1F70895282F207FFE
:100340002BBBDA9A28EE33E0F9013197F1F7DA980E
:10035000F9013197F1F790E054E0880F991F5A9511
:10036000E1F78BBBDA9AC9010197F1F7DA98C90175
:100370000197F1F7089581E00E949E01089582E0BF
:100380000E949E0108950F931F93CF93DF93062F32
:10039000009749F0EC0110E004C089910E947D01B2
:1003A0001F5F1017D0F3DF91CF911F910F91089528
:1003B000623031F0633031F0613029F4805C03C089
:1003C0008C5E01C08C5A80680E949E0108951F9324
:1003D000CF93DF93EC01862F642F0E94D80110E0A9
:1003E00003C00E947D011F5FFE01E10FF11D84919A
:1003F0008823B9F7DF91CF911F910895EF92FF9273
:100400000F931F93CF93DF937C01162F110F110FC2
:10041000110F1064C0E0D0E0F701EC0FFD1F049154
:10042000812F8C0F0E949E01802F0E947D012196BA
:10043000C830D10589F7DF91CF911F910F91FF90BF
:10044000EF9008951F93CF93DF9388E99AE3019784
:10045000F1F71BBA1BBA8AB3806F8ABB8AB3876075
:100460008ABB80E38BBBDA9A28EE33E0F90131973F
:10047000F1F7DA98F9013197F1F78BBBDA9AC901F4
:100480000197F1F7DA98C9010197F1F780E28BBB88
:10049000DA9AC9010197F1F7DA98C9010197F1F7E2
:1004A00088E20E949E018CE00E949E01C4E5D0E09B
:1004B00060E0162F1F5FCE010E94FE012896612F7B
:1004C0001830B9F7DF91CF911F9108950F931F93C3
:1004D000CF93DF93C0E0D0E0082F10E004C08EE19E
:1004E0000E949E012196C017D107CCF3DF91CF91D6
:1004F0001F910F9108950F931F93CF93DF93C0E047
:10050000D0E0082F10E004C088E10E949E012196EF
:10051000C017D107CCF3DF91CF911F910F910895B0
:100520008EE00E949E0108958FE00E949E01089532
:100530008CE00E949E01089588E00E949E0108952B
:100540008CE00E949E0108950F931F93CF93DF9339
:10055000C0E0D0E0082F10E004C080E10E949E01BE
:100560002196C017D107CCF3DF91CF911F910F9146
:1005700008950F931F93CF93DF93C0E0D0E0082F2F
:1005800010E004C084E10E949E012196C017D107AB
:10059000CCF3DF91CF911F910F910895DF92EF92ED
:1005A000FF920F931F93CF93DF93D42E96E0899FF2
:1005B000C0011124242F30E0AC01429FC001439FB1
:1005C000900D529F900D112470E00E94A303EB0147
:1005D000CB0166E070E00E948F03E82EFF2400E06C
:1005E00010E012C0C8010596C817D90710F085E0C1
:1005F00006C0C017D10710F08E2D01C080E00E9408
:100600007D01F3940A5F1F4FFD1460F3DF91CF91DA
:100610001F910F91FF90EF90DF9008956F927F925E
:100620008F929F92AF92BF92CF92DF92EF92FF9202
:100630000F931F93DF93CF93CDB7DEB768970FB6B5
:10064000F894DEBF0FBECDBF0E9422020E94BB0104
:100650000E9461000E94140181E190E069E570E070
:1006600045E550E020E030E00E94CA0035E0632E0E
:10067000712C6C0E7D1E23E0822E912C8C0E9D1E03
:1006800097E0A92EB12CAC0EBD1E6E010894C11CC2
:10069000D11C8E01075F1F4F80E6E82E80E0F82E08
:1006A000C301B401A60195010E9438018DB79EB720
:1006B0000C970FB6F8949EBF0FBE8DBFEDB7FEB777
:1006C0003196ADB7BEB712961C930E931197F38275
:1006D000E2828D819E81958384838B819C81978327
:1006E000868389819A81918780878F819885938776
:1006F00082870E94B6038DB79EB70C960FB6F8940A
:100700009EBF0FBE8DBF80E090E060E070E00E9471
:10071000D801C8016AE070E00E94C301C1CFAA1BE2
:10072000BB1B51E107C0AA1FBB1FA617B70710F0DC
:10073000A61BB70B881F991F5A95A9F7809590950E
:10074000BC01CD01089597FB092E07260AD077FD3D
:1007500004D0E5DF06D000201AF4709561957F4F34
:100760000895F6F7909581959F4F0895AEE0B0E01B
:10077000ECEBF3E00C9465060D891E8986E08C8312
:100780001A8309838FEF9FE79E838D839E01275EE7
:100790003F4FCE0101966F89788DA9010E94DA033F
:1007A0002F813885020F131FF80110822E96E4E086
:1007B0000C948106ABE0B0E0E0EEF3E00C94570659
:1007C0003C012B015A01FC0117821682838181FDB5
:1007D00003C06FEF7FEFC6C19AE0892E1E01089417
:1007E000211C311CF3012381F20123FD859123FF9C
:1007F00081912F01882309F4B2C1853239F423FD98
:10080000859123FF81912F01853229F490E0B30176
:100810000E94CD05E7CF982FFF24EE249924FFE115
:10082000FF15D0F09B3269F09C3228F4903259F0D9
:10083000933291F40EC09D3249F0903369F441E057
:1008400024C052E0F52A84E0F82A28C098E0F92A6A
:1008500025C0E0E1FE2A22C0F7FC29C0892F805381
:100860008A3070F4F6FE05C0989C902C1124980EE6
:1008700015C0E89CE02C1124E80EF0E2FF2A0EC01F
:100880009E3229F4F6FC6BC140E4F42A07C09C3682
:1008900019F450E8F52A02C0983649F4F20123FD14
:1008A000959123FF91912F01992309F0B8CF892FBA
:1008B0008554833018F08052833038F444E050E09F
:1008C000A40EB51E5FE359830FC0933631F0933702
:1008D00079F0933509F056C020C0F50180818983F5
:1008E00042E050E0A40EB51E610101E010E012C02C
:1008F000F501C080D180F6FC03C06FEF7FEF02C02E
:10090000692D70E042E050E0A40EB51EC6010E94C1
:10091000C2058C015FE7F52214C0F501C080D180CB
:10092000F6FC03C06FEF7FEF02C0692D70E042E07C
:1009300050E0A40EB51EC6010E94B7058C0150E818
:10094000F52AF3FE07C01AC080E290E0B3010E94CE
:10095000CD05EA948E2D90E008171907A8F30EC074
:10096000F601F7FC8591F7FE81916F0190E0B301EC
:100970000E94CD05E110EA940150104001151105C7
:1009800079F7EAC0943611F0993669F5F7FE08C098
:10099000F501208131814281538184E090E00AC0D9
:1009A000F501808191819C01442737FD4095542FAA
:1009B00082E090E0A80EB91E9FE6F92257FF09C019
:1009C00050954095309521953F4F4F4F5F4FE0E850
:1009D000FE2ACA01B901A1012AE030E00E94F9050E
:1009E000D82ED21840C0953729F41F2D1F7E2AE03B
:1009F00030E01DC01F2D197F9F3661F0903720F425
:100A0000983509F0ACC00FC0903739F0983709F02D
:100A1000A6C004C028E030E00AC0106114FD1460D4
:100A200020E130E004C014FD166020E132E017FF41
:100A300008C0F501608171818281938144E050E0BA
:100A400008C0F50180819181BC0180E090E042E026
:100A500050E0A40EB51EA1010E94F905D82ED218AF
:100A60008FE7F82EF122F6FE0BC05EEFF522D914C7
:100A700038F4F4FE07C0F2FC05C08FEEF82202C085
:100A80001D2D01C0192DF4FE0DC0FE01ED0DF11D4F
:100A90008081803319F499EEF92208C01F5FF2FEBD
:100AA00005C003C08F2D867809F01F5F0F2DF3FC62
:100AB00014C0F0FE0FC01E1510F09D2C0BC09D2C15
:100AC0009E0C911A1E2D06C080E290E0B3010E9498
:100AD000CD051F5F1E15C0F304C01E1510F4E11AEA
:100AE00001C0EE2404FF0FC080E390E0B3010E9438
:100AF000CD0502FF1DC001FD03C088E790E00EC0D8
:100B000088E590E00BC0802F867891F001FF02C04D
:100B10008BE201C080E2F7FC8DE290E0B3010E941D
:100B2000CD0506C080E390E0B3010E94CD059A9404
:100B3000D914C0F3DA94F101ED0DF11D808190E03C
:100B4000B3010E94CD05DD20A9F706C080E290E048
:100B5000B3010E94CD05EA94EE20C1F743CEF30124
:100B600066817781CB012B96E2E10C947306FC0140
:100B70000590615070400110D8F7809590958E0FC8
:100B80009F1F0895FC016150704001900110D8F73B
:100B9000809590958E0F9F1F08950F931F93CF936D
:100BA000DF938C01EB018B8181FF1BC082FF0DC0A5
:100BB0002E813F818C819D812817390764F4E8815B
:100BC000F9810193F983E88306C0E885F985802FD0
:100BD0000995892B31F48E819F8101969F838E83A5
:100BE00002C00FEF1FEFC801DF91CF911F910F914E
:100BF0000895FA01AA27283051F1203181F1E894B3
:100C00006F936E7F6E5F7F4F8F4F9F4FAF4FB1E0FF
:100C10003ED0B4E03CD0670F781F891F9A1FA11DFA
:100C2000680F791F8A1F911DA11D6A0F711D811DFB
:100C3000911DA11D20D009F468943F912AE0269FC0
:100C400011243019305D3193DEF6CF010895462F1F
:100C50004770405D4193B3E00FD0C9F7F6CF462F00
:100C60004F70405D4A3318F0495D31FD4052419369
:100C700002D0A9F7EACFB4E0A69597958795779526
:100C80006795BA95C9F700976105710508959B01AD
:100C9000AC010A2E06945795479537952795BA9536
:100CA000C9F7620F731F841F951FA01D08952F920F
:100CB0003F924F925F926F927F928F929F92AF92EC
:100CC000BF92CF92DF92EF92FF920F931F93CF9339
:100CD000DF93CDB7DEB7CA1BDB0B0FB6F894DEBFD0
:100CE0000FBECDBF09942A88398848885F846E84F6
:100CF0007D848C849B84AA84B984C884DF80EE8040
:100D0000FD800C811B81AA81B981CE0FD11D0FB648
:100D1000F894DEBF0FBECDBFED010895F894FFCF6C
:100D20002532783A2532783A2532782D256400002C
:00000001FF
