:100000000C944A000C9454000C9454000C9454002A
:100010000C9454000C9454000C9454000C94540010
:100020000C9454000C9454000C9454000C94540000
:100030000C9454000C9454000C9454000C945400F0
:100040000C9454000C9454000C9454000C945400E0
:100050000C945400001F000000001F00001F10102F
:1000600010101F00001F181818181F00001F1C1C5C
:100070001C1C1F00001F1E1E1E1E1F00001F1F1F16
:100080001F1F1F0003070F1F0F070300181C1E1F51
:100090001E1C180011241FBECFE5D4E0DEBFCDBF6B
:1000A0000E9456000C94D3020C9400001F93CF932F
:1000B000DF938FEF87BB0E9420010E94B90080E888
:1000C00095E20E94170280E090E0EC010E944E024F
:1000D000182F90E00E9449028C2F60E00E94D60009
:1000E000812F0E947B00CE010196C0E0D0E08131DB
:1000F00091055CF3EBCF282F207F25BBA89AAA9A05
:1001000028EE33E0F9013197F1F7AA98A898F901A0
:100110003197F1F790E044E0880F991F4A95E1F795
:1001200085BBA89AAA9AC9010197F1F7AA98A8983D
:10013000C9010197F1F70895282F207F25BBAA9ABE
:1001400028EE33E0F9013197F1F7AA98F9013197D8
:10015000F1F790E054E0880F991F5A95E1F785BBBD
:10016000AA9AC9010197F1F7AA98C9010197F1F775
:10017000089581E00E949C00089582E00E949C0006
:1001800008950F931F93CF93DF93062F009749F0A5
:10019000EC0110E004C089910E947B001F5F1017E2
:1001A000D0F3DF91CF911F910F910895623031F01C
:1001B000633031F0613029F4805C03C08C5E01C093
:1001C0008C5A80680E949C0008951F93CF93DF9300
:1001D000EC01862F642F0E94D60010E003C00E941D
:1001E0007B001F5FFE01E10FF11D84918823B9F7A9
:1001F000DF91CF911F910895EF92FF920F931F937C
:10020000CF93DF937C01162F110F110F110F106484
:10021000C0E0D0E0F701EC0FFD1F0491812F8C0F9F
:100220000E949C00802F0E947B002196C830D1053F
:1002300089F7DF91CF911F910F91FF90EF90089573
:100240001F93CF93DF9388E99AE30197F1F715BAEB
:1002500015BA84B3806F84BB84B3876084BB80E3AA
:1002600085BBAA9A28EE33E0F9013197F1F7AA98F5
:10027000F9013197F1F785BBAA9AC9010197F1F706
:10028000AA98C9010197F1F780E285BBAA9AC90132
:100290000197F1F7AA98C9010197F1F788E20E9446
:1002A0009C008CE00E949C00C4E5D0E060E0162F2A
:1002B0001F5FCE010E94FC002896612F1830B9F70D
:1002C000DF91CF911F9108950F931F93CF93DF93E9
:1002D000C0E0D0E0082F10E004C08EE10E949C0036
:1002E0002196C017D107CCF3DF91CF911F910F91C9
:1002F00008950F931F93CF93DF93C0E0D0E0082FB2
:1003000010E004C088E10E949C002196C017D1072C
:10031000CCF3DF91CF911F910F9108958EE00E9451
:100320009C0008958FE00E949C0008958CE00E943C
:100330009C00089588E00E949C0008958CE00E9433
:100340009C0008950F931F93CF93DF93C0E0D0E0FC
:10035000082F10E004C080E10E949C002196C01785
:10036000D107CCF3DF91CF911F910F9108950F9397
:100370001F93CF93DF93C0E0D0E0082F10E004C0BC
:1003800084E10E949C002196C017D107CCF3DF9135
:10039000CF911F910F910895DF92EF92FF920F93EB
:1003A0001F93CF93DF93D42E96E0899FC001112431
:1003B000242F30E0AC01429FC001439F900D529F1B
:1003C000900D112470E00E948302EB01CB0166E0E6
:1003D00070E00E946F02E82EFF2400E010E012C0DF
:1003E000C8010596C817D90710F085E006C0C017E8
:1003F000D10710F08E2D01C080E00E947B00F394A5
:100400000A5F1F4FFD1460F3DF91CF911F910F9191
:10041000FF90EF90DF900895DC010D900020E9F748
:100420001197A81BB90B6A2F0E94C10008959C0167
:10043000442737FD4095542F60E970ED83E090E04C
:100440000E949602C901DA010197A109B109292F79
:100450003A2F4B2F552747FD5A950196A11DB11DE7
:1004600020BD815089B980B5866880BD8AB1886118
:100470008AB90895539854980895569A0895579AAA
:100480000895559A0895569808955798089555983F
:1004900008955D9B02C08CB90895FFCF5F9BFECF8E
:1004A0008CB10895DC010D900020E9F71197A81B8D
:1004B000B90B20E030E040E157E20CC0FC01E20F54
:1004C000F31FE0815D9B0AC0ECB9FA013197F1F7A7
:1004D0002F5F3F4F2A173B0788F30895FFCFAA1BD2
:1004E000BB1B51E107C0AA1FBB1FA617B70710F01F
:1004F000A61BB70B881F991F5A95A9F78095909551
:10050000BC01CD01089597FB092E07260AD077FD7F
:1005100004D0E5DF06D000201AF4709561957F4F76
:100520000895F6F7909581959F4F089597FB092EB2
:1005300005260ED057FD04D014D00AD0001C38F484
:1005400050954095309521953F4F4F4F5F4F0895FF
:10055000F6F790958095709561957F4F8F4F9F4FDF
:100560000895A1E21A2EAA1BBB1BFD010DC0AA1FF4
:10057000BB1FEE1FFF1FA217B307E407F50720F00C
:10058000A21BB30BE40BF50B661F771F881F991F87
:100590001A9469F760957095809590959B01AC01D0
:0A05A000BD01CF010895F894FFCFCC
:00000001FF
