:100000000C943E010C945B010C945B010C945B011D
:100010000C945B010C945B010C945B010C945B01F0
:100020000C945B010C945B010C945B010C945B01E0
:100030000C945B010C945B010C945B010C945B01D0
:100040000C945B010C945B010C945B010C945B01C0
:100050000C945B0100000000000000065F06000039
:10006000070300070300247E247E2400242B6A1249
:1000700000006313086463003649562050000007EF
:1000800003000000003E4100000000413E0000006F
:10009000083E1C3E080008083E08080000E060001A
:1000A0000000080808080800006060000000201038
:1000B000080402003E5149453E0000427F400000D6
:1000C0006251494946002249494936001814127FB5
:1000D00010002F49494931003C4A4949300001711B
:1000E00009050300364949493600064949291E00D9
:1000F000006C6C00000000EC6C0000000814224151
:1001000000002424242424000041221408000201B9
:10011000590906003E415D551E007E0909097E0011
:100120007F49494936003E41414122007F414141DA
:100130003E007F49494941007F09090901003E41CC
:1001400049497A007F0808087F0000417F4100008C
:10015000304040403F007F08142241007F40404033
:1001600040007F0204027F007F0204087F003E41BE
:1001700041413E007F09090906003E4151215E00D0
:100180007F090919660026494949320001017F01AA
:1001900001003F4040403F001F2040201F003F40E3
:1001A0003C403F0063140814630007087008070010
:1001B000714945430000007F4141000002040810DE
:1001C00020000041417F0000040201020400808001
:1001D0008080800000030700000020545454780001
:1001E0007F4444443800384444442800384444445C
:1001F0007F00385454541800087E0909000018A4E0
:10020000A4A47C007F040478000000007D000000AE
:100210004080847D00007F102844000000007F4063
:1002200000007C04180478007C0404780000384442
:1002300044443800FC444444380038444444FC00FE
:10024000447844040800085454542000043E4424D4
:1002500000003C40207C00001C2040201C003C6032
:1002600030603C006C10106C00009CA0603C0000F2
:100270006454544C000002010201000011241FBE0E
:10028000CFE5D4E0DEBFCDBF13E0A0E6B0E0EAE604
:10029000F3E002C005900D92A43BB107D9F713E03B
:1002A000A4EBB3E001C01D92AA3BB107E1F70E94A5
:1002B00096010C94B3010C940000CF93DF938091CE
:1002C000B6039091B703A7E7B3E020E030E040E049
:1002D00050E066E01BC0EA01CF59DF4F80E49FEF9A
:1002E000EC91E69FF0011124E80FF91FEC5AFF4F43
:1002F000E491E99301967FEF8634970789F72F5FA2
:100300003F4F495F5F4F119686E090E02A313105FB
:1003100010F39093B7038093B6033093B9032093FF
:10032000B80380E090E0DF91CF9108958FEF81BB1B
:100330000E945D0120E030E040ED57E0F901EF5907
:10034000FF4F808182BBCA010197F1F712BACA013F
:100350000197F1F7215030403197121613068CF3B4
:0A03600026E930E0EBCFF894FFCF60
:10036A000300000000000000000000000000000080
:10037A000000000000000000000000000000000073
:10038A000000000000000000000000000000000063
:10039A000000000000000000000000000000000053
:1003AA000000000000000000000000000000000043
:10067A0000000000000000492E492E542E4B414E26
:10068A0050555220202020202020202020202020C9
:10069A002020202020202020202020202020202050
:1006AA002020000000000000000000000000000000
:0406BA00000000003C
:00000001FF
